:020000040800F2
:1000000050040020C5000008310F0008510E000800
:1000100000000000000000000000000000000000E0
:100020000000000000000000000000007B0F00083E
:100030000000000000000000790F00087D0F00089C
:10004000D700000800000000D7000008D700000813
:10005000D7000008D7000008D7000008D700000824
:1000600000000000D7000008D7000008D7000008F3
:10007000D7000008D7000008D700000800000000E3
:100080002D1000080000000000000000D70000084C
:1000900000000000D7000008D7000008D7000008C3
:1000A00000000000D700000800000000D700000892
:1000B0000348854600F050F80048004775130008D3
:1000C000500400200448804704480047FEE7FEE74C
:1000D000FEE7FEE7FEE7FEE7D10F0008B1000008EB
:1000E00030B50B46014600202022012409E00D46D0
:1000F000D5409D4205D31D469540491B2546954058
:1001000040191546521E002DF1DC30BD70B500249B
:100110002546002801DA01244042002901DA0125A0
:100120004942FFF7DDFFAC4200D04042002C00D036
:10013000494270BDD2B201E00270401C491EFBD2A0
:1001400070470022F6E710B513460A4604461946E2
:10015000FFF7F0FF204610BD064C0125064E05E0D6
:10016000E36807CC2B430C3C98471034B442F7D3D8
:10017000FFF7A2FFF81400081815000831B500F0C9
:10018000BBF8009C0546601C00D0641C00F0B4F86D
:10019000401BA042FAD338BDF8B500238DE00124FE
:1001A0009C40A44622407DD04C68022C01D0122CE9
:1001B0000CD1DC08A40027183C6A5D07ED0E0F2661
:1001C000AE40B4430E69AE4026433E6205685E0011
:1001D0000324B4400F79A543BF07BF0FB7402F4397
:1001E00007604D68012D05D0022D03D0112D01D0DF
:1001F000122D0ED18568CF68A543B7402F43876085
:1002000047686546AF430D79ED06ED0F9D403D43D0
:100210004560C568A5438C68B4402C43C4604C68F5
:10022000E40049D5284CA56901263543A561A46998
:100230009D0834400094254CAD002F19BC689D07E3
:100240002E0F0F25B540AC430925ED06A84201D17C
:1002500000250FE01E4DA84201D101250AE01D4DE9
:10026000A84201D1022505E01B4DA84201D103257A
:1002700000E00525B5402543BD60184C25684E6853
:100280009543F60300D51543256065684E68954390
:10029000B60300D515436560A5684E689543F60220
:1002A00002D500E008E01543A560E5684E68954377
:1002B000B60200D51543E5605B1C0A681446DC40B5
:1002C00000D06CE7F8BD00000010024000000140C3
:1002D0000004004800080048000C004800040140E9
:1002E0000069084000D001207047002A01D08161D8
:1002F0007047816270470000014800687047000045
:100300000400002002480168491C01607047000099
:100310000400002010B50648016810221143016056
:10032000002000F007F800F017F8002010BD0000D2
:100330000020024010B5044600F0DEF87D21C9001F
:10034000FFF7CEFE00F0C4FA00222146501E00F056
:1003500021F8002010BD000008B50848816901227D
:1003600011438161816911400091C26901040A430E
:10037000C261C0690840009008BD00000010024042
:10038000C106C90E0120884001490860704700007D
:1003900000E100E010B500F0CDFD10BD02494A6853
:1003A00002434A6070470000007000400548016841
:1003B00002221143016004480169042211430161D2
:1003C00030BF70470070004000ED00E0F8B5054612
:1003D00044480E460068C007C00FB0420AD24148E8
:1003E000016849084900314301600068C007C00F37
:1003F000B0425CD128783C4C800705D56068F0217C
:100400008843A968084360602878C0073FD06868BF
:10041000012813D02168022813D08907002946DA61
:1004200061688908890001436160FFF765FF6968B9
:10043000074601290DD0022917D024E0216889033D
:10044000ECE78901EAE7FFF757FFC11B2748814224
:1004500017D860680007800F0128F4D117E0FFF774
:100460004BFFC11B214881420BD860680007800FF9
:100470000228F4D10BE0FFF73FFFC11B1B4881426C
:1004800001D90320F8BD60680007800FF3D115483B
:100490000168C907C90FB1420BD901684908490071
:1004A000314301600068C007C00FB04201D0012095
:1004B000F8BD2878400706D56068072109028843FF
:1004C000E9680843606000F01DF86168084A0906A1
:1004D000090F515CC840074908600020FFF72AFF58
:1004E0000020F8BD002002400010024088130000E8
:1004F000E814000808000020014800687047000068
:100500000800002010B512A30FCB88B06C460FC4B2
:1005100013A30FCB0FC416494A680C20134603409F
:100520001448042B0FD0082B0DD193021B0F6C46DF
:10053000E45CC96A04AB0907090F595CD20304D50E
:10054000FFF7CEFD604308B010BD0B486043FAE7EB
:1005500002030405060708090A0B0C0D0E0F101004
:100560000102030405060708090A0B0C0D0E0F1003
:100570000010024000127A0000093D00FEB504465A
:100580000078D04DC00747D068680007800F012869
:1005900007D068680007800F022809D16868C00387
:1005A00006D52868800337D5606800287ED033E000
:1005B000012062680004012A11D08100002A01D0C4
:1005C000052A10D02A6882432A6028688843286058
:1005D0006068002814D0FFF78FFE06460CE02968FB
:1005E00001432960F4E72A680A432A60F7E7FFF726
:1005F00083FE801B64286FD828688003F7D50BE042
:10060000FFF77AFE064604E0FFF776FE801B6428BB
:10061000F1D828688003F7D42078012680070028C5
:100620003BDA68680007800F07D068680007800F12
:10063000022809D16868C00306D42868800715D548
:10064000E068012832D111E0E0680028286815D060
:1006500030432860FFF750FE074604E0FFF74CFEEA
:10066000C01B0228C7D828688007F7D52868F8215A
:1006700088432169C900084328600EE04008400013
:100680002860FFF739FE074604E0FFF735FEC01B80
:100690000228B0D828688007F7D42078000724D52E
:1006A000E0690028686A10D0304300E008E1686221
:1006B000FFF722FE074604E0FFF71EFEC01B0228DC
:1006C00099D8686A8007F7D50FE040084000686253
:1006D000FFF712FE074605E09DE0FFF70DFEC01B89
:1006E000022888D8686A8007F7D420780427400752
:1006F000002860DA00200190E869C00008D4E969A8
:10070000B8060143E961E9690140012000910190C7
:100710006D480168C90511D4016882151143016053
:10072000FFF7EAFD009005E0FFF7E6FD0099401AAB
:10073000642870D864480068C005F5D5A068012811
:100740000AD0002801D0052810D0286A40084000AF
:100750002862286AB84301E0286A30432862A0680A
:10076000002812D0FFF7C8FD00900AE0286A38433D
:100770002862F1E7FFF7C0FD0099411A5348814212
:1007800049D8286A8007F5D50DE0FFF7B5FD009040
:1007900006E0FFF7B1FD0099411A4C4881423AD872
:1007A000286A8007F5D40198002804D0E96901205F
:1007B00000078143E9612078C00635D560690128CA
:1007C0000CD0401D686B23D038436863686B4008C9
:1007D00040006863FFF790FD064622E0686B3843EF
:1007E0006863686B30436863FFF786FD064604E084
:1007F000FFF782FD801B02285BD8686B8007F7D566
:10080000686BF8218843A169C900084368630BE05D
:10081000B8436863F4E74CE0FFF76EFD801B0228E5
:1008200047D8686B8007F7D4206A002846D06968EB
:100830000907890F022943D00126360602282868B5
:1008400005D0B0432860FFF757FD044633E0B043BE
:100850002860FFF751FD074604E0FFF74DFDC01B80
:10086000022826D828688001F7D4E86AE16A0009DE
:1008700000010843E862616AA06A084369683D2292
:100880001204914308436860286830432860FFF7EA
:1008900033FD044604E0FFF72FFD001B022808D8B3
:1008A00028688001F7D509E0FFF726FD001B022824
:1008B00001D90320FEBD28688001F5D40020FEBDCB
:1008C0000120FEBD001002400070004088130000AF
:1008D000094910B5401E884201D9012010BD074CBE
:1008E00060610321081F00F025FB0020A0610720A4
:1008F0002061002010BD0000FFFFFF0000E000E0CD
:100900007047704770B502462032137F012B1BD011
:100910000123137702245477046865687026B54371
:100920006560046865680E68354365600468A5689D
:100930008026B543A5600068846849680C438460DC
:1009400053770020107770BD022070BD70B5040091
:1009500005D025462035687F002802D006E001201A
:1009600070BD00202877204600F00AF80220687742
:10097000211D206800F062FB01206877002070BD17
:1009800008B500680549884207D10548C2690221B7
:100990000A43C261C0690840009008BD00040040DD
:1009A000001002400222014620314A770268136893
:1009B000012003431360487700207047022102465C
:1009C000203251770168086A074B184207D1086A3C
:1009D0009B10184203D108684008400008600120BD
:1009E000507700207047000011110000F8B505464F
:1009F00004462035287F012817D001272F770220B1
:100A00006877226890687726FF23B0431B029843DB
:100A100090600868502837D00EDC202857D006DCBC
:100A200000284ED0102840D14EE00220F8BD3028DA
:100A300050D0402839D13CE060282DD0702817D004
:100A400001221203801A0ED090422ED1CB684A6840
:100A50008968206800F039FB2068816801229203D0
:100A60001143816021E020688168C908C900F8E766
:100A7000CB684A688968206800F027FB216888688D
:100A8000B0433043886010E0CA684968206800F0CD
:100A900011FC5021206806E0CA684968206800F00F
:100AA0001AFC6021206800F01BFB6F77002028777C
:100AB000F8BDCA684968206800F0FCFB4021206846
:100AC000F1E700212068EEE710212068EBE7202104
:100AD0002068E8E730212068E5E7704770B50446F4
:100AE000006801690025C9438907002915DBC16831
:100AF000C943890711D4E91E0161012020772068CC
:100B000080698007204602D0FFF7E7FF04E000F08D
:100B1000BFF8204600F040F9257720680169C943F5
:100B2000490717D4C168C943490713D40421C943ED
:100B3000016102202077206880698005800F2046AF
:100B400002D0FFF7CAFF04E000F0A2F8204600F050
:100B500023F9257720680169C943090716D4C168BC
:100B6000C943090712D40821C94301610420207731
:100B70002068C0698007204602D0FFF7AEFF04E07E
:100B800000F086F8204600F007F925772068016913
:100B9000C943C90617D4C168C943C90613D4102173
:100BA000C9430161082020772068C0698005800F53
:100BB000204602D0FFF791FF04E000F069F82046DC
:100BC00000F0EAF8257720680169C943C90708D110
:100BD000C168C943C90704D1891E0161204600F0DC
:100BE00035F920680169C943090609D4C168C943B8
:100BF000090605D48021C94301612046FFF780FE24
:100C000020680169C943490609D4C168C943490636
:100C100005D44021C9430161204600F018F920683D
:100C20000169C943890609D4C168C943890605D445
:100C30002021C94301612046FFF763FE70BD00001B
:100C400010B586B0044614216846FFF77AFA0D49BC
:100C50002068884213D10C48426909130A43426153
:100C60004069084005900220009001900020029009
:100C700003900120049069460448FFF78DFA06B0FE
:100C800010BD0000000400400010024000040048B5
:100C90007047F8B5064604462036307F0D460128D9
:100CA0000DD001203077022070770427002A08D069
:100CB000042A16D0082A2AD00C2A4DD137E0022067
:100CC000F8BD206800F014FA2068816908221143F9
:100CD000816120688169B9438161206881692A69DD
:100CE00012E0206800F040FA206882690121C90200
:100CF0000A438261206881690122920291438161E5
:100D0000206881692A6912021143816124E0206808
:100D100000F064FA2068C26908210A43C2612068B1
:100D2000C169B943C1612068C1692A6912E02068BC
:100D300000F090FA2068C1690122D2021143C1611A
:100D40002068C269012189028A43C2612068C169A1
:100D50002A6912021143C1610120707700203077A7
:100D6000F8BD70B5040005D025462035687F002801
:100D700002D006E0012070BD00202877204600F058
:100D80000AF802206877211D206800F057F9012039
:100D90006877002070BD70477047000010B50446AA
:100DA0000068012200F086F90A482168814205D0D6
:100DB0000948814202D00948814204D1486C01228D
:100DC000D203104348642068016801221143016086
:100DD000002010BD002C01400044014000480140AB
:100DE00030B504460068002200F064F9144A134844
:100DF00021689310814205D01248814202D01248E6
:100E000081420AD1086A104207D1086A184204D107
:100E1000486C0125ED03A84348642068016A11422B
:100E200006D1016A194203D10168490849000160ED
:100E3000012020346077002030BD0000002C0140EC
:100E40001111000000440140004801407047704704
:100E5000FEE7000010B586B014216846FFF771F96F
:100E600012484269012149040A43426142690A4029
:100E70000592426949000A434261406909240840D9
:100E8000E4060590002210212046FFF72EFA1020DC
:100E900000900120019000200290032003906946F9
:100EA0002046FFF779F906B010BD0000001002409F
:100EB00010B58EB000240794089409940A940B94FA
:100EC0001C2168460C94FFF73CF91748154901604E
:100ED00030218460416015490461C16080218161D5
:100EE000FFF734FD01200003079007A90E48FFF724
:100EF0007DFD0D48FFF735FF0B940BA90A480C94B4
:100F0000FFF700FD60200090C820019002940C22A1
:100F1000694604940448FFF7BCFE0348FFF790FEBF
:100F20000EB010BD000400400C000020102700008F
:100F3000704700008307FF22DB0E9A408907090EE5
:100F4000994000280BDA0007000F0838830808488A
:100F50009B001818C36993430B43C3617047830810
:100F600004489B001B18186890430843186070479A
:100F700000ED00E000E400E07047704710B5FFF7B7
:100F8000C1F910BD30B591B030216846FFF7D9F8EE
:100F900000240D94012003900E9402251020099442
:100FA0000490009505200F94C0040A900C940895B5
:100FB0000B946846FFF7E2FA07200C900E9401218B
:100FC0000D950F940CA8FFF701FA11B030BD000089
:100FD000134801680122114301604168114A114020
:100FE00041600168104A11400160016801229204C9
:100FF0009143016041683F22120491434160C16AFC
:1010000009090901C162016BFF2214329143016396
:10101000416B49084900416300218160704700002D
:10102000001002400CB8FF08FFFFF6FE10B50248A2
:10103000FFF754FD10BD00000C00002070B50268E1
:10104000174B184E984201D0B04203D17024A243EE
:101050004C682243144C154D984208D0B04206D03B
:10106000134EB04203D0A04201D0A84204D10326BF
:101070003602B243CE6832438026B2434E693243D1
:1010800002608A68C2620A688262984203D0A04203
:1010900001D0A84201D1096901630121416170BDFC
:1010A000002C014000040040004401400048014081
:1010B0000020004010B50123046A8B409C43046269
:1010C000036A8A401343036210BD30B58468FF256C
:1010D0002D021B021343AC430B432343836030BDFB
:1010E000826870239A430A4307210A43826070474B
:1010F000F0B5026A520852000262056A43688269CA
:101100007024A24392080C68920014430222954373
:101110008A68134E2A43114DA84204D0B04202D02F
:10112000104FB84206D10827BA43CF6817430422AC
:1011300097433A46A84204D0B04202D0094DA84293
:1011400006D103252D02AB434D691D438B692B430B
:1011500043608461496841630262F0BD002C014034
:10116000004401400048014070B5026A10239A43D0
:101170000262046A4368826973252D02AA430D68DE
:101180002D021543202294438A6812012243104CF9
:10119000A04208D11446CA688026B44312012243F3
:1011A0004024A24305E00B4CA04202D00A4CA042CE
:1011B00008D10324A402A3434C69A4001C438B69F7
:1011C0009B0023434360856149688163026270BD6F
:1011D000002C0140004401400048014070B5026A03
:1011E000FF2301339A430262046A4368C26970258F
:1011F000AA4392080D6892001543012252029443BB
:101200008A6812022243104CA04207D1C414A243A0
:10121000CC68240222430615B24305E00B4CA042E1
:1012200002D00B4CA04208D103242403A3434C69F1
:1012300024011C438B691B0123434360C56149683A
:10124000C163026270BD0000002C014000440140F7
:101250000048014030B5026A01231B039A43026231
:10126000056A4268C36973242402A3430C682402FC
:101270001C4301235B039D438B681B032B430A4DD7
:10128000A84205D0094DA84202D0094DA84205D177
:101290000125AD03AA434D69AD012A434260C461F3
:1012A00049680164036230BD002C014000440140E4
:1012B0000048014030B5036A046A640864000462AF
:1012C0008469F025AC43120122430A24A3430B4353
:1012D0008261036230BD30B5036A1024A343036208
:1012E0008469036A0F252D031203AC432243A02413
:1012F000A343090119438261016230BD02E008C8BD
:10130000121F08C1002AFAD170477047002001E07F
:1013100001C1121F002AFBD17047000070B51348AD
:10132000FFF740FB0C211148FFF738FDFF24104D5B
:10133000F5342146284600F0BDF8660021463046C7
:1013400000F0B8F82146284600F0B4F821463046AF
:1013500000F0B0F83046FEF711FF0448FFF72EFB0F
:101360000C210248FFF73CFD70BD00000C0000207E
:10137000C4090000FEF7CEFFFFF704FEFFF76AFD89
:10138000FFF796FD002211461020FFF703F810200A
:10139000FEF7F6FF0927FF06012210213846FEF767
:1013A000A4FF3C48FEF7EAFE002210213846FEF773
:1013B0009CFF394841690122520411434161801563
:1013C000FEF7ECFF354C60680026C0438007344DC3
:1013D000002806DB206808210843206001202870CF
:1013E00027E02E702F48FFF7DDFA0C212D48FFF77C
:1013F000D5FCFF21F5312C4800F05CF8FF21F531D8
:101400002A4800F057F8FF21F531274800F052F83C
:10141000FF21F531254800F04DF87D21C900224813
:1014200000F048F82248C662466323E02878012885
:10143000FDD1012210213846FEF757FFFFF76EFF5E
:10144000002210213846FEF750FF01213846FEF7F2
:1014500047FF0028EAD12E70012210213846FEF7FE
:1014600044FF7D20C000FEF789FE0022102138468F
:10147000FEF73BFF0B48FFF7A1FA0C210948FFF7E5
:10148000AFFC20680421084320606068FEF78EFFEF
:10149000CCE70000B80B00000010024000700040D4
:1014A000000000200C000020C4090000204E0000B5
:1014B0000004004070B50A4C0D46002807DD0146C7
:1014C0000848FEF723FEE062E06A400803E07D2062
:1014D000C000E062002060632846FEF74FFE70BD4A
:1014E0000004004040420F00000000000000000027
:1014F000010203040607080918150008000000206F
:101500000C000000FC120008241500080C0000204C
:10151000440400000C13000800000000000000005C
:0415200000127A003B
:04000005080000B13E
:00000001FF
