:020000040800F2
:1000000070040020C5000008D91300086D12000814
:1000100000000000000000000000000000000000E0
:100020000000000000000000000000009114000823
:1000300000000000000000002114000893140008D4
:10004000D70000080000000081140008D700000855
:10005000D7000008D7000008D7000008D700000824
:1000600000000000D7000008D7000008D7000008F3
:10007000D7000008D7000008D700000800000000E3
:100080005D1500080000000000000000D700000817
:1000900000000000D7000008D7000008D7000008C3
:1000A00000000000D700000800000000D700000892
:1000B0000348854600F03CF8004800474D1800080A
:1000C000700400200448804704480047FEE7FEE72C
:1000D000FEE7FEE7FEE7FEE701150008B1000008B5
:1000E00030B50B46014600202022012409E00D46D0
:1000F000D5409D4205D31D469540491B2546954058
:1001000040191546521E002DF1DC30BDD2B201E07F
:100110000270401C491EFBD270470022F6E710B562
:1001200013460A4604461946FFF7F0FF204610BD65
:10013000064C0125064E05E0E36807CC2B430C3C3A
:1001400098471034B442F7D3FFF7B6FFCC18000835
:10015000EC18000831B500F0B9F8009C0546601CA9
:1001600000D0641C00F0B2F8401BA042FAD338BDA6
:10017000F8B500238DE001249C40A44622407DD0A8
:100180004C68022C01D0122C0CD1DC08A4002718DA
:100190003C6A5D07ED0E0F26AE40B4430E69AE40DB
:1001A00026433E6205685E000324B4400F79A543F0
:1001B000BF07BF0FB7402F4307604D68012D05D023
:1001C000022D03D0112D01D0122D0ED18568CF68DC
:1001D000A543B7402F43876047686546AF430D7915
:1001E000ED06ED0F9D403D434560C568A5438C6815
:1001F000B4402C43C4604C68E40049D5284CA56940
:1002000001263543A561A4699D0834400094254C1E
:10021000AD002F19BC689D072E0F0F25B540AC43CC
:100220000925ED06A84201D100250FE01E4DA84288
:1002300001D101250AE01D4DA84201D1022505E0AA
:100240001B4DA84201D1032500E00525B5402543FB
:10025000BD60184C25684E689543F60300D51543DC
:10026000256065684E689543B60300D51543656003
:10027000A5684E689543F60202D500E008E01543F4
:10028000A560E5684E689543B60200D51543E56064
:100290005B1C0A681446DC4000D06CE7F8BD000027
:1002A000001002400000014000040048000800481F
:1002B000000C00480004014042694A404261704716
:1002C000002A01D08161704781627047014800684F
:1002D000704700000400002002480168491C0160CA
:1002E000704700000400002010B506480168102285
:1002F00011430160002000F007F800F017F800201B
:1003000010BD00000020024010B5044600F03AF98C
:100310007D21C900FFF7E4FE00F036FD00222146F2
:10032000501E00F021F8002010BD000008B508485C
:100330008169012211438161816911400091C26983
:1003400001040A43C261C0690840009008BD000072
:1003500000100240C106C90E012088400149086012
:100360007047000000E100E010B501F037F810BD63
:10037000F8B505460068354CC00352D5E069002643
:10038000C00007D4E16920040143E161E169014053
:10039000012600912E480168C90510D40168821514
:1003A00011430160FFF792FF074604E0FFF78EFF5D
:1003B000C01B642824D826480068C005F6D5206AEA
:1003C00003273F02384020D06968394081421CD061
:1003D000206A226AB843012109040A432262226A80
:1003E0008A4322622062C0070FD0FFF76FFF0090A0
:1003F00008E0FFF76BFF0099411A1648814201D9C6
:100400000320F8BD206A8007F3D5206A6968B843E5
:1004100008432062002E04D0E169012000078143D7
:10042000E1612878C00705D0206BA96880088000AA
:10043000084320632878800605D5206B1021884367
:10044000E968084320630020F8BD00000010024066
:100450000070004088130000F8B5054644480E4679
:100460000068C007C00FB0420AD24148016849087D
:100470004900314301600068C007C00FB0425CD141
:1004800028783C4C800705D56068F0218843A9682E
:10049000084360602878C0073FD06868012813D0FF
:1004A0002168022813D08907002946DA6168890883
:1004B000890001436160FFF709FF69680746012968
:1004C0000DD0022917D024E021688903ECE78901C7
:1004D000EAE7FFF7FBFEC11B2748814217D8606897
:1004E0000007800F0128F4D117E0FFF7EFFEC11BD2
:1004F000214881420BD860680007800F0228F4D1A0
:100500000BE0FFF7E3FEC11B1B48814201D903202A
:10051000F8BD60680007800FF3D115480168C9076E
:10052000C90FB1420BD90168490849003143016044
:100530000068C007C00FB04201D00120F8BD287884
:10054000400706D56068072109028843E968084327
:10055000606000F01DF86168084A0906090F515CE7
:10056000C840074908600020FFF7CEFE0020F8BD14
:10057000002002400010024088130000BC18000850
:1005800008000020014800687047000008000020B3
:1005900010B512A30FCB88B06C460FC413A30FCBBA
:1005A0000FC416494A680C20134603401448042B14
:1005B0000FD0082B0DD193021B0F6C46E45CC96A67
:1005C00004AB0907090F595CD20304D5FFF788FD76
:1005D000604308B010BD0B486043FAE7020304050E
:1005E000060708090A0B0C0D0E0F10100102030478
:1005F00005060708090A0B0C0D0E0F10001002402B
:1006000000127A0000093D00FEB504460078D04D86
:10061000C00747D068680007800F012807D06868C6
:100620000007800F022809D16868C00306D5286832
:10063000800337D5606800287ED033E001206268EF
:100640000004012A11D08100002A01D0052A10D00F
:100650002A6882432A6028688843286060680028E6
:1006600014D0FFF733FE06460CE0296801432960E9
:10067000F4E72A680A432A60F7E7FFF727FE801BA2
:1006800064286FD828688003F7D50BE0FFF71EFEBB
:10069000064604E0FFF71AFE801B6428F1D828689C
:1006A0008003F7D420780126800700283BDA6868A9
:1006B0000007800F07D068680007800F022809D163
:1006C0006868C00306D42868800715D5E06801284B
:1006D00032D111E0E0680028286815D03043286046
:1006E000FFF7F4FD074604E0FFF7F0FDC01B02280A
:1006F000C7D828688007F7D52868F821884321697A
:10070000C900084328600EE0400840002860FFF759
:10071000DDFD074604E0FFF7D9FDC01B0228B0D875
:1007200028688007F7D42078000724D5E0690028DE
:10073000686A10D0304300E008E16862FFF7C6FD48
:10074000074604E0FFF7C2FDC01B022899D8686A7B
:100750008007F7D50FE0400840006862FFF7B6FD5C
:10076000074605E09DE0FFF7B1FDC01B022888D8D1
:10077000686A8007F7D4207804274007002860DAE9
:1007800000200190E869C00008D4E969B806014377
:10079000E961E96901400120009101906D4801681B
:1007A000C90511D40168821511430160FFF78EFD60
:1007B000009005E0FFF78AFD0099401A642870D880
:1007C00064480068C005F5D5A06801280AD0002853
:1007D00001D0052810D0286A400840002862286A05
:1007E000B84301E0286A30432862A068002812D08C
:1007F000FFF76CFD00900AE0286A38432862F1E7B1
:10080000FFF764FD0099411A5348814249D8286A8C
:100810008007F5D50DE0FFF759FD009006E0FFF7E2
:1008200055FD0099411A4C4881423AD8286A800700
:10083000F5D40198002804D0E9690120000781431C
:10084000E9612078C00635D5606901280CD0401DCB
:10085000686B23D038436863686B40084000686366
:10086000FFF734FD064622E0686B38436863686B27
:1008700030436863FFF72AFD064604E0FFF726FDD4
:10088000801B02285BD8686B8007F7D5686BF8215E
:100890008843A169C900084368630BE0B8436863F3
:1008A000F4E74CE0FFF712FD801B022847D8686B85
:1008B0008007F7D4206A002846D069680907890FA5
:1008C000022943D0012636060228286805D0B04305
:1008D0002860FFF7FBFC044633E0B0432860FFF7D5
:1008E000F5FC074604E0FFF7F1FCC01B022826D800
:1008F00028688001F7D4E86AE16A0009000108432A
:10090000E862616AA06A084369683D221204914363
:1009100008436860286830432860FFF7D7FC044626
:1009200004E0FFF7D3FC001B022808D828688001E8
:10093000F7D509E0FFF7CAFC001B022801D9032004
:10094000FEBD28688001F5D40020FEBD0120FEBD5B
:100950000010024000700040881300007047000043
:1009600010B5044600688168C9040CD5C068C0058C
:1009700009D52046FFF7F2FF2168C86880221040A1
:10098000FF388238C86001200249400448610120D4
:10099000607710BD0004014070B5040003D0607F93
:1009A000002802D006E0012070BD002020772046FC
:1009B00000F04CF8022060772168CA204862216864
:1009C00053204862204600F03FFDFF250426002802
:1009D00024D1206881681C4A1140816021688868A0
:1009E00062686369104322691A4310438860216872
:1009F000E0680861206801692289120411430161DD
:100A00002068C16880229143C160206880688006A8
:100A100008D4204600F09EF9002803D020684562E3
:100A20006677C0E72068016C01229204914301645B
:100A30002068016CA26911430164206845620120AD
:100A40006077002070BD0000BFFF8FFF10B5006809
:100A5000084988420DD10848016A0122D203114396
:100A60000162002211460220FFF77EFC0220FFF700
:100A700071FC10BD0028004000100240F8B504468B
:100A8000007F0B4601283ED00120207702206077AE
:100A900020681F46002620378068002A35D040068F
:100AA0004AD5187800F0BDFC387800F0BAFC187808
:100AB0009D78000405435878D9780002090408435A
:100AC00005433878996900060543D8690543586994
:100AD00005435868084300902168CA20486221688D
:100AE0005320486220688268FF2101318A43826076
:100AF0002168C86880221040FF388238C860FFF73C
:100B0000E5FB074628E00220F8BD400600D4DE7071
:100B1000187800F08EFC0504587800F08AFC00027A
:100B20000543987800F085FC0543D8780004054318
:100B3000387800F07EFCC5E7DE70B5E7FFF7C6FB4E
:100B4000C11B7D20C000814206D92168FF20486278
:100B5000032060772677F8BD2068C068C007EDD015
:100B60002068C56121680098486420688268FF2178
:100B700001310A4382602068816801221203114317
:100B8000816008480268012149040A4302608268C2
:100B90000A4382602168FF2048620120607726773F
:100BA0000020F8BD00040140F8B50446007F0B4664
:100BB000012815D001202077022060775878002A7C
:100BC00010D000F02EFC987800F02BFCD8789D789F
:100BD000000405435878197800024903084316E0D9
:100BE0000220F8BDC10603D5EF2108400A30587035
:100BF000D87800F01EFC0504587800F01AFC0002BA
:100C00000543987800F015FC054318784003054328
:100C10002168CA204862216853204862204600F0BB
:100C200013FC0026FF27002811D11048054020683A
:100C300045602068C16880229143C1602068806857
:100C400080060BD4204600F085F8002806D02068E6
:100C500047620420607726770120F8BD206847624C
:100C60000120607726770020F8BD00003FFFFF00DD
:100C7000F8B50446007F0D4601280ED001202077EC
:100C800002206077206800278068002A07D040068D
:100C900018D5287800F0C5FB15E00220F8BD400605
:100CA00000D4EF70287800F0C4FB0604687800F0E8
:100CB000C0FB00020643A87800F0BBFB0643E878BF
:100CC000000409E0EF702878AE78000406436878E5
:100CD000E97800020904084306432168CA204862F3
:100CE000216853204862204600F0AEFB00281ED148
:100CF0001748064020680660206881680122920437
:100D0000914381602969E868084321688A68104333
:100D100088602068C16880229143C1602068806833
:100D200080060CD4204600F015F8002807D0216872
:100D3000FF2048620420607727770120F8BD2168F2
:100D4000FF2048620120607727770020F8BD00006F
:100D50007F7F7F0070B504460068C168A022914380
:100D6000C160FFF7B3FA7D260546F60006E0FFF7FF
:100D7000ADFA401BB04201D9032070BD2068C068A5
:100D80008006F4D5002070BD094910B5401E884288
:100D900001D9012010BD074C60610321081F00F03C
:100DA0001DFB0020A06107202061002010BD000075
:100DB000FFFFFF0000E000E07047704770B502469B
:100DC0002032137F012B1BD0012313770224547789
:100DD000046865687026B5436560046865680E68D8
:100DE000354365600468A5688026B543A560006842
:100DF000846849680C43846053770020107770BD85
:100E0000022070BD70B5040005D025462035687FEE
:100E1000002802D006E0012070BD0020287720467F
:100E200000F00AF802206877211D206800F09EFB80
:100E300001206877002070BD08B500680549884228
:100E400007D10548C26902210A43C261C06908404E
:100E5000009008BD0004004000100240022201463C
:100E600020314A77026813680120034313604877F2
:100E700000207047F8B5054604462035287F012834
:100E800017D001272F77022068772268906877268D
:100E9000FF23B0431B02984390600868502837D066
:100EA0000EDC202857D006DC00284ED0102840D178
:100EB0004EE00220F8BD302850D0402839D13CE027
:100EC00060282DD0702817D001221203801A0ED06E
:100ED00090422ED1CB684A688968206800F08DFB6B
:100EE00020688168012292031143816021E020681B
:100EF0008168C908C900F8E7CB684A688968206832
:100F000000F07BFB21688868B0433043886010E0C4
:100F1000CA684968206800F065FC5021206806E036
:100F2000CA684968206800F06EFC6021206800F003
:100F30006FFB6F7700202877F8BDCA684968206882
:100F400000F050FC40212068F1E700212068EEE726
:100F500010212068EBE720212068E8E73021206895
:100F6000E5E7704770B50446006801690025C9438C
:100F70008907002915DBC168C943890711D4E91E17
:100F8000016101202077206880698007204602D017
:100F9000FFF7E7FF04E000F0BFF8204600F040F95B
:100FA000257720680169C943490717D4C168C94337
:100FB000490713D40421C943016102202077206826
:100FC00080698005800F204602D0FFF7CAFF04E049
:100FD00000F0A2F8204600F023F925772068016987
:100FE000C943090716D4C168C943090712D40821A7
:100FF000C9430161042020772068C069800720462A
:1010000002D0FFF7AEFF04E000F086F8204600F0C3
:1010100007F9257720680169C943C90617D4C16853
:10102000C943C90613D41021C943016108202077A0
:101030002068C0698005800F204602D0FFF791FF2D
:1010400004E000F069F8204600F0EAF8257720680F
:101050000169C943C90708D1C168C943C90704D197
:10106000891E0161204600F0FFF820680169C9432C
:10107000090609D4C168C943090605D48021C943BA
:1010800001612046FFF798FE20680169C9434906BF
:1010900009D4C168C943490605D44021C943016147
:1010A000204600F0E2F820680169C943890609D4A6
:1010B000C168C943890605D42021C943016120467E
:1010C000FFF77BFE70BD000010B586B0044614210A
:1010D0006846FFF722F80D492068884213D10C4872
:1010E000426909130A4342614069084005900220A1
:1010F0000090019000200290039001200490694626
:101100000448FFF735F806B010BD000000040040A9
:1011100000100240000400487047F8B50646044637
:101120002036307F0D4601280DD001203077022077
:1011300070770427002A08D0042A16D0082A2AD05B
:101140000C2A4DD137E00220F8BD206800F068FA83
:101150002068816908221143816120688169B9434F
:101160008161206881692A6912E0206800F094FAA0
:10117000206882690121C9020A438261206881696D
:101180000122920291438161206881692A691202D9
:101190001143816124E0206800F0B8FA2068C26938
:1011A00008210A43C2612068C169B943C16120684E
:1011B000C1692A6912E0206800F0E4FA2068C16978
:1011C0000122D2021143C1612068C2690121890252
:1011D0008A43C2612068C1692A6912021143C16150
:1011E0000120707700203077F8BD70B5040005D07D
:1011F00025462035687F002802D006E0012070BD1A
:1012000000202877204600F00AF802206877211D88
:10121000206800F0ABF901206877002070BD7047AE
:101220007047000010B504460068012200F0DAF9AA
:101230000A482168814205D00948814202D0094804
:10124000814204D1486C0122D203104348642068D3
:101250000168012211430160002010BD002C0140F3
:10126000004401400048014070477047FEE700001D
:1012700010B586B014216846FEF74FFF1148426949
:10128000012149040A43426142690A4005924269C8
:1012900049000A434261406909240840E406059078
:1012A000002210212046FFF70BF8102000900021AB
:1012B000012002910391019069462046FEF758FFF4
:1012C00006B010BD0010024030B591B01421684640
:1012D000FEF723FF0024282106A80594FEF71DFF32
:1012E0001B491C4812C07F2101608460C460FF213B
:1012F000046141600838FFF74FFB68460470447092
:10130000847003940122694612480494FFF7B0FCEC
:1013100001256846057545758575C4752A4605A974
:101320000C48FFF741FC68460476447684760794BF
:1013300009940A940B940C9408A80D94057628023D
:101340000F90012206A90348FFF798FB11B030BDAA
:10135000002800400C00002010B58EB00024079437
:10136000089409940A940B941C2168460C94FEF787
:10137000D4FE174815490160302184604160046142
:1013800014498461C160FFF73DFD0120000307900F
:1013900007A90F48FFF76EFD0D48FFF726FF0B94D6
:1013A0000BA90B480C94FFF709FD60200090C820A2
:1013B000019002940C22694604940548FFF7ADFEA3
:1013C0000348FFF781FE0EB010BD0000000400408E
:1013D0002C00002010270000704700008307FF2228
:1013E000DB0E9A408907090E994000280BDA0007A6
:1013F000000F0838830808489B001818C3699343F6
:101400000B43C3617047830804489B001B1818688E
:10141000904308431860704700ED00E000E400E0EE
:10142000704701090A2200075143000F4018C0B25B
:101430007047002102E00A38C0B2491C0A28FAD2DB
:101440000907090E0843704770B504460068C16873
:10145000490613D40021C943C160FEF737FF7D263A
:101460000546F60006E0FEF731FF401BB04201D909
:10147000032070BD2068C0684006F4D5002070BD10
:1014800010B50248FFF76CFA10BD00000C000020F8
:10149000704710B5FEF720FF10BD30B595B0302174
:1014A0006846FEF73AFE00240F940A2000900D943F
:1014B00001200C9412941194039007900E9405202F
:1014C0001394C00410941021022509940A900895E1
:1014D00004910B946846FFF797F807200C900E9440
:1014E00001210D950F940CA8FEF7B6FFE8031090AC
:1014F000C011119010A8FEF73BFF15B030BD0000E1
:10150000134801680122114301604168114A1140EA
:1015100041600168104A1140016001680122920493
:101520009143016041683F22120491434160C16AC6
:1015300009090901C162016BFF2214329143016361
:10154000416B4908490041630021816070470000F8
:10155000001002400CB8FF08FFFFF6FE10B502486D
:10156000FFF700FD10BD00002C00002070B50268E0
:10157000174B184E984201D0B04203D17024A243B9
:101580004C682243144C154D984208D0B04206D006
:10159000134EB04203D0A04201D0A84204D103268A
:1015A0003602B243CE6832438026B2434E6932439C
:1015B00002608A68C2620A688262984203D0A042CE
:1015C00001D0A84201D1096901630121416170BDC7
:1015D000002C01400004004000440140004801404C
:1015E0000020004010B50123046A8B409C43046234
:1015F000036A8A401343036210BD30B58468FF2537
:101600002D021B021343AC430B432343836030BDC5
:10161000826870239A430A4307210A438260704715
:10162000F0B5026A520852000262056A4368826994
:101630007024A24392080C6892001443022295433E
:101640008A68134E2A43114DA84204D0B04202D0FA
:10165000104FB84206D10827BA43CF681743042277
:1016600097433A46A84204D0B04202D0094DA8425E
:1016700006D103252D02AB434D691D438B692B43D6
:1016800043608461496841630262F0BD002C0140FF
:10169000004401400048014070B5026A10239A439B
:1016A0000262046A4368826973252D02AA430D68A9
:1016B0002D021543202294438A6812012243104CC4
:1016C000A04208D11446CA688026B44312012243BE
:1016D0004024A24305E00B4CA04202D00A4CA04299
:1016E00008D10324A402A3434C69A4001C438B69C2
:1016F0009B0023434360856149688163026270BD3A
:10170000002C0140004401400048014070B5026ACD
:10171000FF2301339A430262046A4368C269702559
:10172000AA4392080D689200154301225202944385
:101730008A6812022243104CA04207D1C414A2436B
:10174000CC68240222430615B24305E00B4CA042AC
:1017500002D00B4CA04208D103242403A3434C69BC
:1017600024011C438B691B0123434360C561496805
:10177000C163026270BD0000002C014000440140C2
:101780000048014030B5026A01231B039A430262FC
:10179000056A4268C36973242402A3430C682402C7
:1017A0001C4301235B039D438B681B032B430A4DA2
:1017B000A84205D0094DA84202D0094DA84205D142
:1017C0000125AD03AA434D69AD012A434260C461BE
:1017D00049680164036230BD002C014000440140AF
:1017E0000048014030B5036A046A6408640004627A
:1017F0008469F025AC43120122430A24A3430B431E
:101800008261036230BD30B5036A1024A3430362D2
:101810008469036A0F252D031203AC432243A024DD
:10182000A343090119438261016230BD02E008C887
:10183000121F08C1002AFAD170477047002001E04A
:1018400001C1121F002AFBD170470000FEF74CFDBA
:10185000FFF723FEFFF70CFDFFF736FDFFF77CFDDA
:10186000002211461020FEF77FFD1020FEF772FDCA
:101870000F48FFF7F3FA0C210D48FFF7D3FC0C4D8E
:101880000C4E0D4CC8277D20C000FEF763FC0920DC
:101890001021C006FEF710FD20686430E86004489F
:1018A000FFF7A3FC2068B042EDDB2760EBE7000008
:1018B0002C00002010270000000000200000000085
:1018C000000000000102030406070809EC180008E4
:1018D000000000200C0000002C180008F818000878
:1018E0000C000020640400003C180008C800000040
:0818F0000000000000127A0064
:04000005080000B13E
:00000001FF
